{
  "_format": "hh-sol-artifact-1",
  "contractName": "Voting",
  "sourceName": "contracts/Voting.sol",
  "abi": [
    {
      "inputs": [],
      "stateMutability": "nonpayable",
      "type": "constructor"
    },
    {
      "inputs": [
        {
          "internalType": "uint256",
          "name": "",
          "type": "uint256"
        }
      ],
      "name": "Candidates",
      "outputs": [
        {
          "internalType": "uint256",
          "name": "id",
          "type": "uint256"
        },
        {
          "internalType": "uint256",
          "name": "age",
          "type": "uint256"
        },
        {
          "internalType": "string",
          "name": "name",
          "type": "string"
        },
        {
          "internalType": "uint256",
          "name": "votes",
          "type": "uint256"
        }
      ],
      "stateMutability": "view",
      "type": "function"
    },
    {
      "inputs": [
        {
          "internalType": "string",
          "name": "_name",
          "type": "string"
        },
        {
          "internalType": "uint256",
          "name": "_age",
          "type": "uint256"
        }
      ],
      "name": "addCandidate",
      "outputs": [],
      "stateMutability": "nonpayable",
      "type": "function"
    },
    {
      "inputs": [],
      "name": "candidateCount",
      "outputs": [
        {
          "internalType": "uint256",
          "name": "",
          "type": "uint256"
        }
      ],
      "stateMutability": "view",
      "type": "function"
    },
    {
      "inputs": [],
      "name": "createElection",
      "outputs": [],
      "stateMutability": "nonpayable",
      "type": "function"
    },
    {
      "inputs": [],
      "name": "owner",
      "outputs": [
        {
          "internalType": "address",
          "name": "",
          "type": "address"
        }
      ],
      "stateMutability": "view",
      "type": "function"
    },
    {
      "inputs": [
        {
          "internalType": "uint256",
          "name": "_id",
          "type": "uint256"
        }
      ],
      "name": "vote",
      "outputs": [],
      "stateMutability": "nonpayable",
      "type": "function"
    },
    {
      "inputs": [
        {
          "internalType": "address",
          "name": "",
          "type": "address"
        }
      ],
      "name": "voterlist",
      "outputs": [
        {
          "internalType": "bool",
          "name": "",
          "type": "bool"
        }
      ],
      "stateMutability": "view",
      "type": "function"
    }
  ],
  "bytecode": "0x60806040523480156200001157600080fd5b50336000806101000a81548173ffffffffffffffffffffffffffffffffffffffff021916908373ffffffffffffffffffffffffffffffffffffffff160217905550620000626200006860201b60201c565b620004a5565b620000b06040518060400160405280600681526020017f49736869746100000000000000000000000000000000000000000000000000008152506019620000fa60201b60201c565b620000f86040518060400160405280600681526020017f5361756d79610000000000000000000000000000000000000000000000000000815250601b620000fa60201b60201c565b565b601981101562000141576040517f08c379a0000000000000000000000000000000000000000000000000000000008152600401620001389062000300565b60405180910390fd5b6200014b62000201565b81816020018181525050828160400181905250600180546200016e919062000333565b816000018181525050600281908060018154018082558091505060019003906000526020600020906004020160009091909190915060008201518160000155602082015181600101556040820151816002019080519060200190620001d592919062000229565b5060608201518160030155505060016000815480929190620001f790620003d0565b9190505550505050565b6040518060800160405280600081526020016000815260200160608152602001600081525090565b82805462000237906200039a565b90600052602060002090601f0160209004810192826200025b5760008555620002a7565b82601f106200027657805160ff1916838001178555620002a7565b82800160010185558215620002a7579182015b82811115620002a657825182559160200191906001019062000289565b5b509050620002b69190620002ba565b5090565b5b80821115620002d5576000816000905550600101620002bb565b5090565b6000620002e8600c8362000322565b9150620002f5826200047c565b602082019050919050565b600060208201905081810360008301526200031b81620002d9565b9050919050565b600082825260208201905092915050565b6000620003408262000390565b91506200034d8362000390565b9250827fffffffffffffffffffffffffffffffffffffffffffffffffffffffffffffffff038211156200038557620003846200041e565b5b828201905092915050565b6000819050919050565b60006002820490506001821680620003b357607f821691505b60208210811415620003ca57620003c96200044d565b5b50919050565b6000620003dd8262000390565b91507fffffffffffffffffffffffffffffffffffffffffffffffffffffffffffffffff8214156200041357620004126200041e565b5b600182019050919050565b7f4e487b7100000000000000000000000000000000000000000000000000000000600052601160045260246000fd5b7f4e487b7100000000000000000000000000000000000000000000000000000000600052602260045260246000fd5b7f4e6f7420656c696769626c650000000000000000000000000000000000000000600082015250565b610d1780620004b56000396000f3fe608060405234801561001057600080fd5b506004361061007d5760003560e01c80638da5cb5b1161005b5780638da5cb5b146100db578063a4e8a67c146100f9578063a9a981a314610129578063e23cec7b146101475761007d565b80630121b93f1461008257806324c2286c1461009e578063290e9212146100a8575b600080fd5b61009c60048036038101906100979190610773565b610163565b005b6100a6610309565b005b6100c260048036038101906100bd9190610773565b61038b565b6040516100d2949392919061091c565b60405180910390f35b6100e3610453565b6040516100f0919061086b565b60405180910390f35b610113600480360381019061010e91906106f6565b610477565b6040516101209190610886565b60405180910390f35b610131610497565b60405161013e9190610901565b60405180910390f35b610161600480360381019061015c919061071f565b61049d565b005b600360003373ffffffffffffffffffffffffffffffffffffffff1673ffffffffffffffffffffffffffffffffffffffff16815260200190815260200160002060009054906101000a900460ff16156101f0576040517f08c379a00000000000000000000000000000000000000000000000000000000081526004016101e7906108c1565b60405180910390fd5b60015481111580156102025750600081115b610241576040517f08c379a0000000000000000000000000000000000000000000000000000000008152600401610238906108a1565b60405180910390fd5b60026001826102509190610a30565b81548110610287577f4e487b7100000000000000000000000000000000000000000000000000000000600052603260045260246000fd5b906000526020600020906004020160030160008154809291906102a990610b51565b91905055506001600360003373ffffffffffffffffffffffffffffffffffffffff1673ffffffffffffffffffffffffffffffffffffffff16815260200190815260200160002060006101000a81548160ff02191690831515021790555050565b6103496040518060400160405280600681526020017f4973686974610000000000000000000000000000000000000000000000000000815250601961049d565b6103896040518060400160405280600681526020017f5361756d79610000000000000000000000000000000000000000000000000000815250601b61049d565b565b6002818154811061039b57600080fd5b90600052602060002090600402016000915090508060000154908060010154908060020180546103ca90610aee565b80601f01602080910402602001604051908101604052809291908181526020018280546103f690610aee565b80156104435780601f1061041857610100808354040283529160200191610443565b820191906000526020600020905b81548152906001019060200180831161042657829003601f168201915b5050505050908060030154905084565b60008054906101000a900473ffffffffffffffffffffffffffffffffffffffff1681565b60036020528060005260406000206000915054906101000a900460ff1681565b60015481565b60198110156104e1576040517f08c379a00000000000000000000000000000000000000000000000000000000081526004016104d8906108e1565b60405180910390fd5b6104e9610599565b818160200181815250508281604001819052506001805461050a91906109da565b81600001818152505060028190806001815401808255809150506001900390600052602060002090600402016000909190919091506000820151816000015560208201518160010155604082015181600201908051906020019061056f9291906105c1565b506060820151816003015550506001600081548092919061058f90610b51565b9190505550505050565b6040518060800160405280600081526020016000815260200160608152602001600081525090565b8280546105cd90610aee565b90600052602060002090601f0160209004810192826105ef5760008555610636565b82601f1061060857805160ff1916838001178555610636565b82800160010185558215610636579182015b8281111561063557825182559160200191906001019061061a565b5b5090506106439190610647565b5090565b5b80821115610660576000816000905550600101610648565b5090565b60006106776106728461098d565b610968565b90508281526020810184848401111561068f57600080fd5b61069a848285610aac565b509392505050565b6000813590506106b181610cb3565b92915050565b600082601f8301126106c857600080fd5b81356106d8848260208601610664565b91505092915050565b6000813590506106f081610cca565b92915050565b60006020828403121561070857600080fd5b6000610716848285016106a2565b91505092915050565b6000806040838503121561073257600080fd5b600083013567ffffffffffffffff81111561074c57600080fd5b610758858286016106b7565b9250506020610769858286016106e1565b9150509250929050565b60006020828403121561078557600080fd5b6000610793848285016106e1565b91505092915050565b6107a581610a64565b82525050565b6107b481610a76565b82525050565b60006107c5826109be565b6107cf81856109c9565b93506107df818560208601610abb565b6107e881610c27565b840191505092915050565b6000610800600a836109c9565b915061080b82610c38565b602082019050919050565b6000610823600d836109c9565b915061082e82610c61565b602082019050919050565b6000610846600c836109c9565b915061085182610c8a565b602082019050919050565b61086581610aa2565b82525050565b6000602082019050610880600083018461079c565b92915050565b600060208201905061089b60008301846107ab565b92915050565b600060208201905081810360008301526108ba816107f3565b9050919050565b600060208201905081810360008301526108da81610816565b9050919050565b600060208201905081810360008301526108fa81610839565b9050919050565b6000602082019050610916600083018461085c565b92915050565b6000608082019050610931600083018761085c565b61093e602083018661085c565b818103604083015261095081856107ba565b905061095f606083018461085c565b95945050505050565b6000610972610983565b905061097e8282610b20565b919050565b6000604051905090565b600067ffffffffffffffff8211156109a8576109a7610bf8565b5b6109b182610c27565b9050602081019050919050565b600081519050919050565b600082825260208201905092915050565b60006109e582610aa2565b91506109f083610aa2565b9250827fffffffffffffffffffffffffffffffffffffffffffffffffffffffffffffffff03821115610a2557610a24610b9a565b5b828201905092915050565b6000610a3b82610aa2565b9150610a4683610aa2565b925082821015610a5957610a58610b9a565b5b828203905092915050565b6000610a6f82610a82565b9050919050565b60008115159050919050565b600073ffffffffffffffffffffffffffffffffffffffff82169050919050565b6000819050919050565b82818337600083830152505050565b60005b83811015610ad9578082015181840152602081019050610abe565b83811115610ae8576000848401525b50505050565b60006002820490506001821680610b0657607f821691505b60208210811415610b1a57610b19610bc9565b5b50919050565b610b2982610c27565b810181811067ffffffffffffffff82111715610b4857610b47610bf8565b5b80604052505050565b6000610b5c82610aa2565b91507fffffffffffffffffffffffffffffffffffffffffffffffffffffffffffffffff821415610b8f57610b8e610b9a565b5b600182019050919050565b7f4e487b7100000000000000000000000000000000000000000000000000000000600052601160045260246000fd5b7f4e487b7100000000000000000000000000000000000000000000000000000000600052602260045260246000fd5b7f4e487b7100000000000000000000000000000000000000000000000000000000600052604160045260246000fd5b6000601f19601f8301169050919050565b7f496e76616c696420696400000000000000000000000000000000000000000000600082015250565b7f416c726561647920766f74656400000000000000000000000000000000000000600082015250565b7f4e6f7420656c696769626c650000000000000000000000000000000000000000600082015250565b610cbc81610a64565b8114610cc757600080fd5b50565b610cd381610aa2565b8114610cde57600080fd5b5056fea26469706673582212204e104119fa3868fd6edceddf9200baffabc7942591047f0f2e137cd31bfd97d164736f6c63430008040033",
  "linkReferences": {},
  "deployedLinkReferences": {}
}